:100000000C942A000C9434000C9434000C943400AA
:100010000C9434000C9434000C9434000C94340090
:100020000C9434000C9434000C9434000C94340080
:100030000C9434000C9434000C9434000C94340070
:100040000C9434000C9434000C9434000C94340060
:100050000C94340011241FBECFE5D8E0DEBFCDBF25
:100060000E9436000C94AE080C940000CF93DF93EE
:10007000CDB7DEB7C454D1090FB6F894DEBF0FBEBA
:10008000CDBF40E050E060E070E080E090E00E9492
:10009000950140E050E061E070E080E090E00E9477
:1000A000950141E050E060E070E080E090E00E9467
:1000B000FC0440E050E061E070E080E090E00E94ED
:1000C000FC0480E090E0AAE7B4E48F87988BA98BCA
:1000D000BA8B20E030E04AE753E46F85788989895C
:1000E0009A890E9419086DA37EA38FA398A78DA15A
:1000F0009EA1AFA1B8A58B8B9C8BAD8BBE8B20E056
:1001000030E040E85FE36B897C898D899E890E949D
:10011000930788232CF481E090E0988F8F8B54C054
:1001200020E03FEF4FE757E46B897C898D899E89FA
:100130000E9414081816D4F520E030E040E251E4A3
:100140006F85788989899A890E94190869A77AA791
:100150008BA79CA789A59AA5ABA5BCA589A39AA3A3
:10016000ABA3BCA369A17AA18BA19CA10E94980713
:100170006DA77EA78FA798ABADA5BEA5B88FAF8B97
:1001800010C089E190E09A8F898F898D9A8D0197AF
:10019000F1F79A8F898F00008F89988D0197988F3A
:1001A0008F8B8F89988D892B61F719C06B897C891A
:1001B0008D899E890E94980769AB7AAB8BAB9CAB0B
:1001C00089A99AA9988F8F8B8F89988D9C8F8B8FF7
:1001D0008B8D9C8D0197F1F79C8F8B8F000041E0F8
:1001E00050E061E070E080E090E00E94FC0440E0BC
:1001F00050E060E070E080E090E00E94FC0480E06D
:1002000090E0AAE7B4E489839A83AB83BC8320E0BF
:1002100030E04AE753E469817A818B819C810E94B6
:1002200019086DAB7EAB8FAB98AF8DA99EA9AFA916
:10023000B8AD8D839E83AF83B88720E030E040E87F
:100240005FE36D817E818F8198850E94930788236B
:100250002CF481E090E09A8789875BC020E03FEF33
:100260004FE757E46D817E818F8198850E94140845
:1002700018160CF03CC020E030E040E251E4698107
:100280007A818B819C810E94190869AF7AAF8BAF0C
:100290009CAF89AD9AADABADBCAD8D8F9E8FAF8F4E
:1002A000B8A36D8D7E8D8F8D98A10E9498072196A1
:1002B0006CAF7DAF8EAF9FAF2197ADADBEADBA87AE
:1002C000A98710C089E190E09C878B878B859C85EE
:1002D0000197F1F79C878B87000089859A850197A4
:1002E0009A87898789859A85892B61F71DC06D81D9
:1002F0007E818F8198850E94980725966CAF7DAF8F
:100300008EAF9FAF259723968EAD9FAD23979A878B
:10031000898789859A859E878D878D859E8501979A
:10032000F1F79E878D870000BCCECF93DF93CDB7CA
:10033000DEB728970FB6F894DEBF0FBECDBF9C8303
:100340008B837E836D8358874F8381E090E09A830F
:1003500089838B819C81049728F083E090E09A83C5
:1003600089832FC28D819E81089728F084E090E0D8
:100370009A83898326C28F819885039728F085E028
:1003800090E09A8389831DC28B819C81039709F435
:1003900096C18B819C81049708F010C28B819C814F
:1003A000029709F40DC18B819C81039708F006C266
:1003B0008B819C81892B31F08B819C81019709F481
:1003C00080C0FCC18F819885029721F18F8198852B
:1003D000039708F074C08F819885892B31F08F8145
:1003E0009885019709F441C06AC08AE390E0E82F3C
:1003F000F92F8081282F81E090E00D8002C0880FC6
:10040000991F0A94E2F7282B8AE390E0E82FF92F4E
:10041000208356C08AE390E0E82FF92F8081282FAF
:1004200081E090E00D8002C0880F991F0A94E2F7E6
:10043000809528238AE390E0E82FF92F20838BE32F
:1004400090E0E82FF92F8081282F81E090E00D8047
:1004500002C0880F991F0A94E2F7809528238BE346
:1004600090E0E82FF92F20832BC08AE390E0E82F5B
:10047000F92F8081282F81E090E00D8002C0880F45
:10048000991F0A94E2F7809528238AE390E0E82FE9
:10049000F92F20838BE390E0E82FF92F8081282F1C
:1004A00081E090E00D8002C0880F991F0A94E2F766
:1004B000282B8BE390E0E82FF92F208301C0000068
:1004C0007EC18F819885029721F18F81988503974E
:1004D00008F074C08F819885892B31F08F819885C1
:1004E000019709F441C06AC087E390E0E82FF92F33
:1004F0008081282F81E090E00D8002C0880F991F35
:100500000A94E2F7282B87E390E0E82FF92F208365
:1005100056C087E390E0E82FF92F8081282F81E0F3
:1005200090E00D8002C0880F991F0A94E2F7809531
:10053000282387E390E0E82FF92F208388E390E0D9
:10054000E82FF92F8081282F81E090E00D8002C0F4
:10055000880F991F0A94E2F78095282388E390E09A
:10056000E82FF92F20832BC087E390E0E82FF92FA5
:100570008081282F81E090E00D8002C0880F991FB4
:100580000A94E2F78095282387E390E0E82FF92F7B
:10059000208388E390E0E82FF92F8081282F81E0E5
:1005A00090E00D8002C0880F991F0A94E2F7282B73
:1005B00088E390E0E82FF92F208301C00000FFC0FE
:1005C0008F819885029721F18F819885039708F094
:1005D00074C08F819885892B31F08F819885019720
:1005E00009F441C06AC084E390E0E82FF92F8081CC
:1005F000282F81E090E00D8002C0880F991F0A9497
:10060000E2F7282B84E390E0E82FF92F208356C0EF
:1006100084E390E0E82FF92F8081282F81E090E09B
:100620000D8002C0880F991F0A94E2F78095282355
:1006300084E390E0E82FF92F208385E390E0E82F12
:10064000F92F8081282F81E090E00D8002C0880F73
:10065000991F0A94E2F78095282385E390E0E82F1C
:10066000F92F20832BC084E390E0E82FF92F8081BD
:10067000282F81E090E00D8002C0880F991F0A9416
:10068000E2F78095282384E390E0E82FF92F208378
:1006900085E390E0E82FF92F8081282F81E090E01A
:1006A0000D8002C0880F991F0A94E2F7282B85E37A
:1006B00090E0E82FF92F208301C0000080C08F81D7
:1006C0009885029721F18F819885039708F074C06F
:1006D0008F819885892B31F08F819885019709F456
:1006E00041C06AC081E390E0E82FF92F8081282F74
:1006F00081E090E00D8002C0880F991F0A94E2F714
:10070000282B81E390E0E82FF92F208356C081E366
:1007100090E0E82FF92F8081282F81E090E00D8074
:1007200002C0880F991F0A94E2F78095282381E37D
:1007300090E0E82FF92F208382E390E0E82FF92F53
:100740008081282F81E090E00D8002C0880F991FE2
:100750000A94E2F78095282382E390E0E82FF92FAE
:1007600020832BC081E390E0E82FF92F8081282F90
:1007700081E090E00D8002C0880F991F0A94E2F793
:100780008095282381E390E0E82FF92F208382E3EE
:1007900090E0E82FF92F8081282F81E090E00D80F4
:1007A00002C0880F991F0A94E2F7282B82E390E099
:1007B000E82FF92F208301C0000001C000001A8239
:1007C000198289819A8128960FB6F894DEBF0FBEF0
:1007D000CDBFDF91CF910895CF93DF9300D000D0AC
:1007E00000D0CDB7DEB79C838B837E836D8381E0A1
:1007F00090E09A8389838B819C81049728F083E021
:1008000090E09A838983EDC08D819E81039728F0C3
:1008100085E090E09A838983E4C08B819C81039773
:1008200009F4ABC08B819C81049708F0D7C08B8101
:100830009C81029709F470C08B819C81039708F01A
:10084000CDC08B819C81892B29F08B819C81019764
:1008500091F1C4C08D819E810297A1F08D819E810E
:10086000039738F58D819E81892B29F08D819E819A
:10087000019799F01EC08AE390E02FEFE82FF92F3F
:10088000208318C08AE390E0E82FF92F10828BE3D1
:1008900090E0E82FF92F10820DC08AE390E0E82F56
:1008A000F92F10828BE390E02FEFE82FF92F2083B0
:1008B00001C0000094C08D819E810297A1F08D81BE
:1008C0009E81039738F58D819E81892B29F08D813A
:1008D0009E81019799F01EC087E390E02FEFE82FEB
:1008E000F92F208318C087E390E0E82FF92F1082BA
:1008F00088E390E0E82FF92F10820DC087E390E0A5
:10090000E82FF92F108288E390E02FEFE82FF92FDE
:10091000208301C0000063C08D819E810297A1F0F9
:100920008D819E81039738F58D819E81892B29F0D9
:100930008D819E81019799F01EC084E390E02FEF96
:10094000E82FF92F208318C084E390E0E82FF92FD7
:10095000108285E390E0E82FF92F10820DC084E328
:1009600090E0E82FF92F108285E390E02FEFE82F39
:10097000F92F208301C0000032C08D819E81029733
:10098000A1F08D819E81039738F58D819E81892B01
:1009900029F08D819E81019799F01EC081E390E03E
:1009A0002FEFE82FF92F208318C081E390E0E82F84
:1009B000F92F108282E390E0E82FF92F10820DC00A
:1009C00081E390E0E82FF92F108282E390E02FEF8F
:1009D000E82FF92F208301C0000001C000001A8217
:1009E000198289819A8126960FB6F894DEBF0FBED0
:1009F000CDBFDF91CF910895CF93DF93CDB7DEB711
:100A000028970FB6F894DEBF0FBECDBF9C838B83B3
:100A10007E836D8358874F8381E090E09A8389833A
:100A20008B819C81049728F083E090E09A838983EE
:100A300006C18D819E81089728F084E090E09A831A
:100A40008983FDC08F819885029728F085E090E02A
:100A50009A838983F4C08B819C81039709F4B7C082
:100A60008B819C81049708F0E7C08B819C81029761
:100A700009F478C08B819C81039708F0DDC08B81DD
:100A80009C81892B29F08B819C810197B1F1D4C085
:100A90008F819885892BC9F08F819885019759F5A9
:100AA0008BE390E0E82FF92F8081282F81E090E000
:100AB0000D8002C0880F991F0A94E2F7282B8BE360
:100AC00090E0E82FF92F208317C08BE390E0E82F08
:100AD000F92F8081282F81E090E00D8002C0880FDF
:100AE000991F0A94E2F7809528238BE390E0E82F82
:100AF000F92F208301C00000A0C08F819885892B29
:100B0000C9F08F819885019759F588E390E0E82F27
:100B1000F92F8081282F81E090E00D8002C0880F9E
:100B2000991F0A94E2F7282B88E390E0E82FF92F29
:100B3000208317C088E390E0E82FF92F8081282FC9
:100B400081E090E00D8002C0880F991F0A94E2F7BF
:100B50008095282388E390E0E82FF92F208301C0B7
:100B600000006BC08F819885892BC9F08F81988593
:100B7000019759F585E390E0E82FF92F8081282F20
:100B800081E090E00D8002C0880F991F0A94E2F77F
:100B9000282B85E390E0E82FF92F208317C085E309
:100BA00090E0E82FF92F8081282F81E090E00D80E0
:100BB00002C0880F991F0A94E2F78095282385E3E5
:100BC00090E0E82FF92F208301C0000036C08F810C
:100BD0009885892BC9F08F819885019759F582E313
:100BE00090E0E82FF92F8081282F81E090E00D80A0
:100BF00002C0880F991F0A94E2F7282B82E390E045
:100C0000E82FF92F208317C082E390E0E82FF92F17
:100C10008081282F81E090E00D8002C0880F991F0D
:100C20000A94E2F78095282382E390E0E82FF92FD9
:100C3000208301C0000001C000001A82198289814E
:100C40009A8128960FB6F894DEBF0FBECDBFDF9114
:100C5000CF910895CF93DF9300D000D000D0CDB7CF
:100C6000DEB79C838B837E836D8381E090E09A83E3
:100C700089838B819C81049728F083E090E09A839C
:100C8000898384C08D819E81029728F085E090E061
:100C90009A8389837BC08B819C81039709F45CC014
:100CA0008B819C81049708F06EC08B819C81029798
:100CB000E1F18B819C81039708F065C08B819C8159
:100CC000892B29F08B819C810197C1F05CC08D81BB
:100CD0009E81892B59F08D819E81019769F48BE368
:100CE00090E02FEFE82FF92F208307C08BE390E0EF
:100CF000E82FF92F108201C0000046C08D819E812F
:100D0000892B59F08D819E81019769F488E390E0E9
:100D10002FEFE82FF92F208307C088E390E0E82F1A
:100D2000F92F108201C000002FC08D819E81892B78
:100D300059F08D819E81019769F485E390E02FEF52
:100D4000E82FF92F208307C085E390E0E82FF92FE3
:100D5000108201C0000018C08D819E81892B59F03E
:100D60008D819E81019769F482E390E02FEFE82F57
:100D7000F92F208307C082E390E0E82FF92F10823B
:100D800001C0000001C000001A82198289819A8185
:100D900026960FB6F894DEBF0FBECDBFDF91CF9180
:100DA0000895CF93DF93CDB7DEB728970FB6F894A9
:100DB000DEBF0FBECDBF9C838B837E836D83588740
:100DC0004F8381E090E09A8389838B819C81049793
:100DD00028F083E090E09A8389839AC08D819E8178
:100DE000089728F084E090E09A83898391C08F81EE
:100DF0009885892B29F482E090E09A83898388C0C2
:100E00008B819C81039709F466C08B819C81049738
:100E100008F07BC08B819C81029709F442C08B81D2
:100E20009C81039708F071C08B819C81892B29F0EC
:100E30008B819C810197D9F068C089E390E0E82F0D
:100E4000F92F8081282F30E081E090E00D8002C0F2
:100E5000880F991F0A94E2F782239323282F392FB2
:100E60008F819885E82FF92F318320834FC086E347
:100E700090E0E82FF92F8081282F30E081E090E08A
:100E80000D8002C0880F991F0A94E2F782239323F2
:100E9000282F392F8F819885E82FF92F31832083D0
:100EA00035C083E390E0E82FF92F8081282F30E0D0
:100EB00081E090E00D8002C0880F991F0A94E2F74C
:100EC00082239323282F392F8F819885E82FF92F9C
:100ED000318320831BC080E390E0E82FF92F8081CD
:100EE000282F30E081E090E00D8002C0880F991F2C
:100EF0000A94E2F782239323282F392F8F81988534
:100F0000E82FF92F3183208301C000001A82198253
:100F100089819A8128960FB6F894DEBF0FBECDBFA7
:100F2000DF91CF9108950E94C70708F481E00895EA
:100F30000E94F30788F09F5798F0B92F9927B7516F
:100F4000B0F0E1F0660F771F881F991F1AF0BA956D
:100F5000C9F714C0B13091F00E940D08B1E00895B6
:100F60000C940D08672F782F8827B85F39F0B93FA8
:100F7000CCF3869577956795B395D9F73EF4909520
:100F80008095709561957F4F8F4F9F4F0895990F72
:100F90000008550FAA0BE0E8FEEF16161706E80743
:100FA000F907C0F012161306E407F50798F0621B64
:100FB000730B840B950B39F40A2661F0232B242B39
:100FC000252B21F408950A2609F4A140A6958FEF58
:100FD000811D811D089557FD9058440F551F59F0EC
:100FE0005F3F71F04795880F97FB991F61F09F3F16
:100FF00079F087950895121613061406551FF2CF3F
:101000004695F1DF08C0161617061806991FF1CF8E
:1010100086957105610508940895E894BB276627B5
:101020007727CB0197F908950E94C70708F48FEF3F
:1010300008950E942C080C949D080E948F0838F097
:101040000E94960820F0952311F00C9486080C94C9
:101050008C0811240C940E080E94EB0770F3959FE6
:10106000C1F3950F50E0551F629FF001729FBB279F
:10107000F00DB11D639FAA27F00DB11DAA1F649F3B
:101080006627B00DA11D661F829F2227B00DA11DEE
:10109000621F739FB00DA11D621F839FA00D611D74
:1010A000221F749F3327A00D611D231F849F600D95
:1010B000211D822F762F6A2F11249F5750409AF0BE
:1010C000F1F088234AF0EE0FFF1FBB1F661F771F4A
:1010D000881F91505040A9F79E3F510580F00C9415
:1010E00086080C940E085F3FE4F3983ED4F386958F
:1010F00077956795B795F795E7959F5FC1F7FE2BB5
:10110000880F911D9695879597F9089597F99F6790
:1011100080E870E060E008959FEF80EC089500247F
:101120000A941616170618060906089500240A944C
:1011300012161306140605060895092E0394000CD2
:1011400011F4882352F0BB0F40F4BF2B11F460FF61
:1011500004C06F5F7F4F8F4F9F4F0895F894FFCF6C
:00000001FF
